:100000000C9434000C943E000C943E000C943E0082
:100010000C943E000C943E000C943E000C943E0068
:100020000C943E000C943E000C943E000C9467002F
:100030000C943E000C943E000C943E000C943E0048
:100040000C943E000C943E000C943E000C943E0038
:100050000C943E000C943E000C943E000C943E0028
:100060000C943E000C943E0011241FBECFEFD8E04C
:10007000DEBFCDBF0E9479000C9481000C9400007B
:10008000259A84E89EE19093890080938800E1E8B6
:10009000F0E0808188608083AFE6B0E08C91826080
:1000A0008C938081846080830895E1E8F0E0808112
:1000B000816080830895E1E8F0E080818E7F808315
:1000C000089580E090E0089580E090E008951F9208
:1000D0000F920FB60F9211248F939F9395B180E2E8
:1000E000892785B99F918F910F900FBE0F901F9018
:1000F0001895789488EE93E00E9440000E94550085
:06010000FFCFF894FFCFD1
:00000001FF
